{
  "contractName": "Evidence",
  "abi": [
    {
      "constant": false,
      "inputs": [
        {
          "internalType": "int256",
          "name": "evid",
          "type": "int256"
        },
        {
          "internalType": "string",
          "name": "name",
          "type": "string"
        },
        {
          "internalType": "string",
          "name": "owner",
          "type": "string"
        },
        {
          "internalType": "string",
          "name": "location",
          "type": "string"
        },
        {
          "internalType": "string",
          "name": "myHash",
          "type": "string"
        }
      ],
      "name": "addEvidence",
      "outputs": [],
      "payable": false,
      "stateMutability": "nonpayable",
      "type": "function"
    },
    {
      "constant": true,
      "inputs": [
        {
          "internalType": "int256",
          "name": "evid",
          "type": "int256"
        }
      ],
      "name": "getEvidence",
      "outputs": [
        {
          "internalType": "string",
          "name": "",
          "type": "string"
        },
        {
          "internalType": "string",
          "name": "",
          "type": "string"
        },
        {
          "internalType": "string",
          "name": "",
          "type": "string"
        },
        {
          "internalType": "string",
          "name": "",
          "type": "string"
        }
      ],
      "payable": false,
      "stateMutability": "view",
      "type": "function"
    }
  ],
  "bytecode": "0x608060405234801561001057600080fd5b50610aae806100206000396000f3fe608060405234801561001057600080fd5b50600436106100365760003560e01c8063f2b3f2531461003b578063f7da3f57146102c5575b600080fd5b6102c3600480360360a081101561005157600080fd5b81019080803590602001909291908035906020019064010000000081111561007857600080fd5b82018360208201111561008a57600080fd5b803590602001918460018302840111640100000000831117156100ac57600080fd5b91908080601f016020809104026020016040519081016040528093929190818152602001838380828437600081840152601f19601f8201169050808301925050505050505091929192908035906020019064010000000081111561010f57600080fd5b82018360208201111561012157600080fd5b8035906020019184600183028401116401000000008311171561014357600080fd5b91908080601f016020809104026020016040519081016040528093929190818152602001838380828437600081840152601f19601f820116905080830192505050505050509192919290803590602001906401000000008111156101a657600080fd5b8201836020820111156101b857600080fd5b803590602001918460018302840111640100000000831117156101da57600080fd5b91908080601f016020809104026020016040519081016040528093929190818152602001838380828437600081840152601f19601f8201169050808301925050505050505091929192908035906020019064010000000081111561023d57600080fd5b82018360208201111561024f57600080fd5b8035906020019184600183028401116401000000008311171561027157600080fd5b91908080601f016020809104026020016040519081016040528093929190818152602001838380828437600081840152601f19601f8201169050808301925050505050505091929192905050506104b0565b005b6102f1600480360360208110156102db57600080fd5b8101908080359060200190929190505050610598565b6040518080602001806020018060200180602001858103855289818151815260200191508051906020019080838360005b8381101561033d578082015181840152602081019050610322565b50505050905090810190601f16801561036a5780820380516001836020036101000a031916815260200191505b50858103845288818151815260200191508051906020019080838360005b838110156103a3578082015181840152602081019050610388565b50505050905090810190601f1680156103d05780820380516001836020036101000a031916815260200191505b50858103835287818151815260200191508051906020019080838360005b838110156104095780820151818401526020810190506103ee565b50505050905090810190601f1680156104365780820380516001836020036101000a031916815260200191505b50858103825286818151815260200191508051906020019080838360005b8381101561046f578082015181840152602081019050610454565b50505050905090810190601f16801561049c5780820380516001836020036101000a031916815260200191505b509850505050505050505060405180910390f35b6104b86109a5565b6040518060a00160405280878152602001868152602001858152602001848152602001838152509050600081908060018154018082558091505090600182039060005260206000209060050201600090919290919091506000820151816000015560208201518160010190805190602001906105359291906109d4565b5060408201518160020190805190602001906105529291906109d4565b50606082015181600301908051906020019061056f9291906109d4565b50608082015181600401908051906020019061058c9291906109d4565b50505050505050505050565b60608060608060008090505b6000805490508110156108bc576105b96109a5565b600082815481106105c657fe5b90600052602060002090600502016040518060a001604052908160008201548152602001600182018054600181600116156101000203166002900480601f0160208091040260200160405190810160405280929190818152602001828054600181600116156101000203166002900480156106825780601f1061065757610100808354040283529160200191610682565b820191906000526020600020905b81548152906001019060200180831161066557829003601f168201915b50505050508152602001600282018054600181600116156101000203166002900480601f0160208091040260200160405190810160405280929190818152602001828054600181600116156101000203166002900480156107245780601f106106f957610100808354040283529160200191610724565b820191906000526020600020905b81548152906001019060200180831161070757829003601f168201915b50505050508152602001600382018054600181600116156101000203166002900480601f0160208091040260200160405190810160405280929190818152602001828054600181600116156101000203166002900480156107c65780601f1061079b576101008083540402835291602001916107c6565b820191906000526020600020905b8154815290600101906020018083116107a957829003601f168201915b50505050508152602001600482018054600181600116156101000203166002900480601f0160208091040260200160405190810160405280929190818152602001828054600181600116156101000203166002900480156108685780601f1061083d57610100808354040283529160200191610868565b820191906000526020600020905b81548152906001019060200180831161084b57829003601f168201915b505050505081525050905086816000015114156108ae5780602001518160400151826060015183608001518393508292508191508090509550955095509550505061099e565b5080806001019150506105a4565b6040518060400160405280600981526020017f4e6f7420466f756e6400000000000000000000000000000000000000000000008152506040518060400160405280600981526020017f4e6f7420466f756e6400000000000000000000000000000000000000000000008152506040518060400160405280600981526020017f4e6f7420466f756e6400000000000000000000000000000000000000000000008152506040518060400160405280600981526020017f4e6f7420466f756e6400000000000000000000000000000000000000000000008152509450945094509450505b9193509193565b6040518060a0016040528060008152602001606081526020016060815260200160608152602001606081525090565b828054600181600116156101000203166002900490600052602060002090601f016020900481019282601f10610a1557805160ff1916838001178555610a43565b82800160010185558215610a43579182015b82811115610a42578251825591602001919060010190610a27565b5b509050610a509190610a54565b5090565b610a7691905b80821115610a72576000816000905550600101610a5a565b5090565b9056fea265627a7a723158205704fb0c1d69f05ef4258aee03303eaff43e885c9f715545077e57e369ae906064736f6c63430005100032",
  "source": "pragma solidity ^0.5.16;\n\n// Creating a Smart Contract\ncontract Evidence{\n\n// Structure of evidence\nstruct Evidence{\n\t\n\t// State variables\n\tint evid;\n\tstring name;\n\tstring owner;\n\tstring location;\n\tstring myHash;\n}\n\nEvidence []evds;\n\n// Function to add evidence details\nfunction addEvidence(\n\tint evid, string memory name,\n\tstring memory owner,\n\tstring memory location,\n\tstring memory myHash\n) public{\n\tEvidence memory e\n\t\t=Evidence(evid,\n\t\t\t\tname,\n\t\t\t\towner,\n\t\t\t\tlocation,\n\t\t\t\tmyHash);\n\tevds.push(e);\n}\n\n// Function to get details of evidence\nfunction getEvidence(\n\tint evid\n) public view returns(\n\tstring memory,\n\tstring memory,\n\tstring memory,\n\tstring memory){\n\tuint i;\n\tfor(i=0;i<evds.length;i++)\n\t{\n\t\tEvidence memory e\n\t\t\t=evds[i];\n\t\t\n\t\t// Looks for a matching\n\t\t// Evidence id\n\t\tif(e.evid==evid)\n\t\t{\n\t\t\t\treturn(e.name,\n\t\t\t\t\te.owner,\n\t\t\t\t\te.location,\n\t\t\t\t\te.myHash);\n\t\t}\n\t}\n\t\n\t// If evidence exists id is not present it returns Not Found\n\treturn(\"Not Found\",\n\t\t\t\"Not Found\",\n\t\t\t\"Not Found\",\n\t\t\t\"Not Found\");\n    }\n}\n",
  "sourcePath": "/home/adam/Desktop/Evidence Management/contracts/Evidence.sol",
  "compiler": {
    "name": "solc",
    "version": "0.5.16+commit.9c3226ce.Emscripten.clang"
  },
  "schemaVersion": "3.4.1",
  "updatedAt": "2021-06-04T15:34:54.854Z",
  "networkType": "ethereum",
  "devdoc": {
    "methods": {}
  },
  "userdoc": {
    "methods": {}
  }
}